:020000040800F2
:1000000000000120C125000805260008052600087B
:100010000526000805260008052600080000000047
:100020000000000000000000000000007D2100082A
:100030000526000800000000D9210008252200083C
:1000400005260008052600080526000805260008E4
:1000500005260008052600080526000805260008D4
:1000600005260008052600080526000805260008C4
:1000700005260008052600080526000805260008B4
:1000800005260008052600080526000805260008A4
:100090000526000805260008052600080526000894
:1000A0000526000805260008052600080526000884
:1000B0000526000805260008052600080526000874
:1000C0000526000805260008052600080526000864
:1000D0000526000805260008052600080526000854
:1000E0000526000805260008052600080526000844
:1000F0000526000805260008052600080526000834
:100100000526000805260008052600080526000823
:100110000526000805260008052600080526000813
:100120000526000805260008052600080526000803
:1001300000000000000000000000000000000000BF
:1001400000000000000000000000000000000000AF
:10015000000000000000000000000000000000009F
:10016000000000000000000000000000000000008F
:10017000000000000000000000000000000000007F
:10018000000000000000000000000000000000006F
:10019000000000000000000000000000000000005F
:1001A000000000000000000000000000000000004F
:1001B000000000000000000000000000000000003F
:1001C000000000000000000000000000000000002F
:1001D000000000000000000000000000000000001F
:0401E0005FF8E0F1F3
:1001F000374B82B01A6842F001021A605968354ADA
:100200000A405A601A6822F0847222F480321A601E
:100210001A6822F480221A605A6822F4FE025A6098
:100220004FF41F029A600022009201921A6842F471
:1002300080321A601A6802F400320192009A013288
:100240000092019A1AB9009AB2F5A06FF2D11A6819
:1002500012F4003218BF01220192019A012A30D112
:100260001D4A116841F010011160116821F003016D
:100270001160116841F0020111605A685A605A68B1
:100280005A605A6842F480625A605A6822F47C12BA
:100290005A605A6842F4E8125A601A6842F0807252
:1002A0001A601A689201FCD55A6822F003025A605B
:1002B0005A6842F002025A605A6802F00C02082A98
:1002C000FAD14FF00062054B9A6002B0704700BF50
:1002D000001002400000FFF80020024000ED00E0A6
:1002E000104A536803F00C03082B0F4B0AD00F4938
:1002F00019605268C2F303121A4411791A68CA408D
:100300001A60704751685068C1F38341C00301F11E
:10031000020102D406484143EAE750688003F9D459
:100320000248F8E7001002400000002000127A00A6
:1003300000093D004FF0FF3200F10803C0E902233D
:10034000436003610023036070470023036170472B
:1003500043689A684B608A609A6851609960036844
:10036000086101330360704730B50C68631C0AD123
:1003700003695A684A6091608B605960036808613C
:100380000133036030BD00F108021346526815685E
:10039000A542FAD9EDE70369D0E901128A605160FC
:1003A0005968814208BF5A60002202611A68013A06
:1003B0001A6018687047000010B5044601F0F3FE9B
:1003C000A46B01F0FFFEB4FA84F0400910BDF8B54B
:1003D0001546026C0446866B52B9076847BB8068B5
:1003E00001F0AAFA0546A76001362846A663F8BDC3
:1003F00065B9406802F06EF86368226C1344A26825
:1004000063609342F0D323686360EDE7C06802F055
:1004100061F8226CE36851429B1A2268E3609342C0
:100420003EBFA3685B18E360022D01D116B1013E07
:100430000025D9E73546D7E703461A6C084610B4BD
:1004400062B1DC68996814448C4228BF1968DC608A
:1004500028BFD960D96810BC02F03CB810BC704706
:1004600070B5044601F09FFE94F8455004F124064F
:100470006DB2002D14DCFF2384F8453001F0A2FE9C
:1004800001F091FE94F8445004F110066DB2002D75
:1004900012DCFF2384F84430BDE8704001F092BEC6
:1004A000636A002BE7D0304601F084F808B101F010
:1004B00015F9013D6DB2DCE72369002BE9D0304628
:1004C00001F078F808B101F009F9013D6DB2DEE7FD
:1004D00038B504460D4601F066FED4E90F314B43B2
:1004E0002268D0185B1A1344A060E3600020FF2349
:1004F000A063626084F8443084F8453095B923697C
:1005000063B104F1100001F055F838B14FF080529A
:10051000094B1A60BFF34F8FBFF36F8F01F052FE8C
:10052000012038BD04F11000FFF704FF04F124009E
:10053000FFF700FFF2E700BF04ED00E0F8B5064664
:10054000484350300D46174601F0D6FE044658B1D8
:1005500065B100F1500301212046C4E90F65236015
:10056000FFF7B6FF84F84C702046F8BD0346F2E76B
:1005700010B502220C460021FFF7E0FF00B18463B2
:1005800010BD2DE9FF474FF0000804460F461E46F8
:10059000C146DFF8ECA0019201F005FEA26BE36B0F
:1005A0009A4201D3022E19D1324639462046FFF72E
:1005B0000EFF636A1BB104F1240000F0FBFF38B1A9
:1005C0004FF080522E4B1A60BFF34F8FBFF36F8FE7
:1005D00001F0F8FD012004B0BDE8F087019D1DB9D0
:1005E00001F0F0FD0020F6E7B8F1000F02D102A8FB
:1005F00001F044F801F0E6FD00F0FEFD01F0D3FD4E
:1006000094F84430FF2B08BF84F8449094F84530A8
:10061000FF2B08BF84F8459001F0D4FD01A902A882
:1006200001F036F830BB01F0BEFDA26BE36B9A42DD
:100630000FD101F0C7FD019904F1100000F080FF17
:100640002046FFF70DFF00F061FE50B14FF00108AA
:10065000A2E701F0B7FD2046FFF702FF00F056FECB
:10066000F4E74FF08053CAF80030BFF34F8FBFF369
:100670006F8FEBE72046FFF7F3FE00F047FEB1E790
:1006800004ED00E0024610B500210120FFF756FFFF
:10069000044638B100231A46194683600360C360DC
:1006A000FFF76FFF204610BD38B58568044601F09E
:1006B000DDF885420AD1E368013BE36023B91A46BD
:1006C00019462046FFF75DFF012000E0002038BDFD
:1006D000F8B5174604461A46EFF311864FF010039B
:1006E00083F31188BFF36F8FBFF34F8F806BE36B82
:1006F000984201D3022A1DD194F8455020466DB28C
:10070000FFF765FE6B1C10D1636A0BB9012009E08D
:1007100004F1240000F04EFF0028F7D0002FF5D0A0
:100720000120386086F31188F8BD01356DB284F878
:100730004550EBE70020F5E738B50C46EFF311859F
:100740004FF0100383F31188BFF36F8FBFF34F8F08
:10075000826BC36B93421BD990F845100132FF297D
:100760004BB282630FD1436A0BB9012008E02430F9
:1007700000F020FF0028F8D0002CF6D001202060E7
:1007800085F3118838BD01335BB280F84530ECE762
:100790000020F5E72DE9F043002704460E46B84651
:1007A00085B0DFF8DC90019201F0FDFCA56BD5B1BE
:1007B00031462046013DFFF73FFEA563236963B143
:1007C00004F1100000F0F6FE38B14FF080522C4BCF
:1007D0001A60BFF34F8FBFF36F8F01F0F3FC01205E
:1007E00005B0BDE8F083019D1DB901F0EBFC0020D0
:1007F000F6E717B902A800F041FF01F0E3FC00F0B2
:10080000FBFC01F0D0FC94F84430FF2B08BF84F8C7
:10081000448094F84530FF2B08BF84F8458001F0F0
:10082000D1FC01A902A800F033FFF0B92046FFF780
:10083000C3FDA0B1019904F1240000F081FE20461F
:10084000FFF70EFE00F062FD38B94FF08053C9F893
:100850000030BFF34F8FBFF36F8F0127A4E720460F
:10086000FFF7FEFD00F052FDF7E72046FFF7F8FD29
:1008700000F04CFD2046FFF79FFD0028EDD0B6E7C5
:1008800004ED00E02DE9F043002504462F462E46F6
:1008900085B0DFF81491019101F085FCA36BE3B101
:1008A000013BA363236813B901F0CCF8A06023696E
:1008B00063B104F1100000F07DFE38B14FF08052BA
:1008C000394B1A60BFF34F8FBFF36F8F01F07AFC83
:1008D0000125284605B0BDE8F083DDF80480B8F1B5
:1008E000000F03D101F06EFC0025F2E717B902A852
:1008F00000F0C4FE01F066FC00F07EFC01F053FC49
:1009000094F84430FF2B08BF84F8446094F84530D5
:10091000FF2B08BF84F8456001F054FC01A902A830
:1009200000F0B6FE40BB2046FFF746FDF0B123685D
:100930003BB901F038FCA06800F0AEFF054601F0BD
:1009400041FC019904F1240000F0FAFD2046FFF774
:1009500087FD00F0DBFC38B94FF08053C9F8003058
:10096000BFF34F8FBFF36F8F012795E72046FFF747
:1009700077FD00F0CBFCF7E72046FFF771FD00F0B4
:10098000C5FC2046FFF718FD0028EDD0002DA0D0B3
:1009900001F009FC616A19B1236B1968C1F1050105
:1009A000A06801F001F89DE704ED00E070B58668ED
:1009B00004460D4600F05AFF864204D10120E36848
:1009C0000133E36070BD29462046FFF75BFF002836
:1009D000F8D0E3680133E360F4E72DE9F043002742
:1009E00004460E46B84685B0DFF8DC90019201F06F
:1009F000DAFBA36BD3B131462046E568FFF71CFD57
:100A0000636AE56063B104F1240000F0D3FD38B1FE
:100A10004FF080522C4B1A60BFF34F8FBFF36F8F94
:100A200001F0D0FB012005B0BDE8F083019D1DB9A8
:100A300001F0C8FB0020F6E717B902A800F01EFE7F
:100A400001F0C0FB00F0D8FB01F0ADFB94F844309E
:100A5000FF2B08BF84F8448094F84530FF2B08BF73
:100A600084F8458001F0AEFB01A902A800F010FE59
:100A7000F0B92046FFF7A0FCA0B1019904F12400D1
:100A800000F05EFD2046FFF7EBFC00F03FFC38B9BC
:100A90004FF08053C9F80030BFF34F8FBFF36F8F13
:100AA0000127A4E72046FFF7DBFC00F02FFCF7E767
:100AB0002046FFF7D5FC00F029FC2046FFF77CFC20
:100AC0000028EDD0B6E700BF04ED00E02DE9F041CD
:100AD00005469046EFF311874FF0100383F311881A
:100AE000BFF36F8FBFF34F8F846B0CB390F84460EC
:100AF000013C76B2FFF7A0FC731CAC6313D12B69E9
:100B00000BB901200BE005F1100000F053FD0028A7
:100B1000F7D0B8F1000FF4D00120C8F8000087F337
:100B20001188BDE8F081013676B285F84460E8E7C7
:100B30002046F4E770B50446EFF311854FF010033B
:100B400083F31188BFF36F8FBFF34F8F836B3BB17C
:100B5000C668FFF771FC0120E66085F3118870BD5F
:100B60001846FAE710B5044601F01DFBA46B01F02E
:100B700029FB204610BD10B5044601F014FBA06B04
:100B8000E46B241A01F01EFB204610BD806B7047F9
:100B900001F018BC806C70478164704790F84C007D
:100BA0007047806BB0FA80F040097047836BC06B70
:100BB000C31A58425841704770B504460D46164650
:100BC00001F0F1FA94F84430FF2B04BF002384F8BD
:100BD000443094F84530FF2B04BF002384F845309F
:100BE00001F0F0FAA36B2BB93246294604F1240038
:100BF00000F0CAFC2046BDE8704031E4064B1A689C
:100C000012681AB94FF0FF325A6070471A68D268FA
:100C1000D2685268F8E700BF18000020F8B5184CF9
:100C20000646A568E0680F460430FFF7B4FB38B904
:100C3000E2682369D16A01228A4023EA0203236120
:100C4000731C07D137B1E1680E480431BDE8F840A4
:100C5000FFF77EBBE368AD195D6006D3A06AE1686B
:100C6000BDE8F8400431FFF77FBB2068E16804313C
:100C7000FFF77AFB6368AB4288BF6560F8BD00BFD1
:100C8000180000202C00002080B54FF08057114C38
:100C9000114E636C43B9A36C012BFAD93760BFF3D3
:100CA0004F8FBFF36F8FF4E701F07DFAA36BDD6820
:100CB000281DFFF770FB236C013B2364636C013B31
:100CC000636401F07FFA286B01F07CFB284601F099
:100CD00079FBDEE71800002004ED00E02DE9F84F75
:100CE0009600074630460D46984601F005FB8146C2
:100CF000A0B15C2001F000FB044660B1C0F8309068
:100D00003246A521484601F087FCD4F830B045B9F9
:100D100084F8345014E0484601F054FB4FF0FF369D
:100D200096E06B1E04F134020F3513F8011F02F830
:100D3000011B197809B1AB42F7D1002384F8433085
:100D40000A9D4FF0000A042D28BF042504F1040970
:100D50004846E562E564C4F850A0043EFFF7F5FAA2
:100D6000C5F1050504F118005E44FFF7EEFAC4F87A
:100D700054A0424639462461A561646284F858A0B3
:100D800026F0070001F0E9F90B9B206003B11C601D
:100D9000364D01F008FA2B6C05F1480701332B643E
:100DA000EB68002B57D1EC602B6C012B2BD1384614
:100DB000FFF7C0FA05F15C00FFF7BCFA05F170001F
:100DC000FFF7B8FA05F18400FFF7B4FA05F1AC08B3
:100DD00005F19800FFF7AEFA05F1C0064046FFF7AF
:100DE000A9FA3046FFF7A6FA05F1D400FFF7A2FAF8
:100DF00005F12C00FFF79EFA05F11400FFF79AFAAF
:100E0000C5F80080AE6201261420D5F8EC30E26A05
:100E100029690133C5F8EC30636406FA02F30B4329
:100E200000FB027049462B61FFF792FA01F0CAF904
:100E3000D5F8E83063B1EB68DA6AE36A9A4207D220
:100E40004FF080520A4B1A60BFF34F8FBFF36F8F82
:100E50003046BDE8F88FD5F8E830002BD3D1EB68E9
:100E6000E26ADB6A9A4228BFEC60CCE718000020F7
:100E700004ED00E070B50546234C01F094F905B986
:100E8000E5682E1D3046FFF786FA58B91420E96A46
:100E900000FB0140836C2BB9012223698A4023EABD
:100EA00002032361AB6A1BB105F11800FFF773FA67
:100EB000D4F8EC300133C4F8EC30E368AB4217D11E
:100EC00031461248FFF744FA636C0133636401F062
:100ED00079F9D4F8E83053B1E368AB4207D14FF069
:100EE00080520B4B1A60BFF34F8FBFF36F8F70BDF3
:100EF000236C286B013B236401F064FA284601F05F
:100F000061FAFFF77BFEE2E71800002044000020B2
:100F100004ED00E02DE9F041164C0546E3688342FC
:100F200021D001F040F9D4F800806E69A76A01F081
:100F300049F9464519D0BE4217D004F114039E4228
:100F400009D1AB6A8BB995F85830012B0CBF022040
:100F50000320BDE8F0812C34A64208D0002E0CBF3F
:100F600004200120F5E70020F3E70220F1E7042048
:100F7000EFE700BF1800002010B5044601F013F998
:100F80000CB9034BDC68E46A01F01CF9204610BD83
:100F900018000020EFF311834FF0100282F3118844
:100FA000BFF36F8FBFF34F8F08B9034AD068C06A91
:100FB00083F31188704700BF1800002004292DE931
:100FC000F84328BF042104460D4601F0ECF80CB9A3
:100FD000284BDC68E36C9D4240D0264F42D9FA682A
:100FE000A24244D0FA68D66AAE428CBF00260126DF
:100FF000D4F82C90E5644B45A36908BFE562002B4B
:101000004FF01403A4BFC5F10505A5611A4D62692F
:1010100003FB09539A4218D104F104084046FFF734
:10102000BAF930B901223B6902FA09F223EA020354
:101030003B6101231420E26A396993400B4300FBB2
:10104000025041463B61FFF783F93EB14FF08052B9
:101050000A4B1A60BFF34F8FBFF36F8FBDE8F843A1
:1010600001F0B0B8FE68321B56425641C0E7002678
:10107000BEE700BF180000206000002004ED00E083
:1010800070B51B4D0446EB68834230D078B301F055
:101090008AF8626905F114039A4224D1A36A05F122
:1010A000D40293421FD0F3B9261D3046FFF773F9DF
:1010B00001231420E26A296993400B432B6105F157
:1010C000480300FB02303146FFF742F9EB68E26A61
:1010D000DB6A9A4207D34FF08052064B1A60BFF387
:1010E0004F8FBFF36F8FBDE8704001F06BB870BDDC
:1010F0001800002004ED00E02DE9F0410646EFF372
:1011000011874FF0100383F31188BFF36F8FBFF384
:101110004F8F194D426905F114039A4229D1846A0F
:1011200005F1D400844224D01CBBD5F8F030EBB9D3
:10113000EB68F46ADB6A06F104089C42404634BF5F
:1011400000240124FFF727F901231420F26A2969FA
:1011500093400B4341462B61483500FB0250FFF79B
:10116000F7F887F311882046BDE8F08106F11801F1
:10117000F5E70024F5E700BF1800002037B500258B
:10118000124C782204F1F403019311492B461148C3
:101190000095FFF7A3FD012816D100F011FE0128EC
:1011A00012D14FF0100383F31188BFF36F8FBFF399
:1011B0004F8F4FF0FF336360C4F8E800A56003B0C1
:1011C000BDE8304001F058B803B030BD1800002031
:1011D000B8260008890C00084FF0100383F311882B
:1011E000BFF36F8FBFF34F8F0022024BC3F8E8208D
:1011F00000F0D8BF18000020034AD2F8F0300133C5
:10120000C2F8F030704700BF18000020014B98680A
:10121000704700BF18000020014B9868704700BF5E
:1012200018000020014B186C704700BF1800002008
:1012300008B9024BD8683430704700BF180000204E
:101240002DE9F84F2F4CD4F8F030002B53D1A7687C
:101250000137A76057B92368A26A2260A362D4F855
:10126000F8300133C4F8F830FFF7C8FC6368002594
:10127000BB4210D91422E368DB6A02FB03439B6C78
:10128000022B28BF0125D4F80031002B0CBF2846C3
:101290000120BDE8F88F4FF0010A4FF01409DFF884
:1012A000688023681B681BB94FF0FF336360E1E778
:1012B0002368DB68DE6873689F42F7D306F1040B8E
:1012C0005846FFF768F8B36A1BB106F11800FFF73C
:1012D00062F8F06A22690AFA00F31343594609FBDF
:1012E00000802361FFF734F8E368F26ADB6A9A4210
:1012F00028BF0125D5E7D4F8FC3000250133C4F818
:10130000FC30C0E718000020600000202DE9F84301
:101310002C4C00F048FFD4F8F030013BC4F8F0301A
:10132000D4F8F0502DB1002400F04CFF2046BDE869
:10133000F883236C002BF6D001264FF0140804F13B
:1013400048071DE0D4F8E030DD6805F1040905F137
:101350001800FFF720F84846FFF71DF8E86A2269F1
:1013600006FA00F31343494608FB00702361FEF7B9
:10137000EFFFE368EA6ADB6A9A4201D3C4F80061CE
:10138000D4F8D430002BDDD10DB1FFF737FCD4F801
:10139000FC504DB10126FFF753FF08B1C4F80061BE
:1013A000013DF8D1C4F8FC50D4F80031002BBAD07C
:1013B0004FF08052044B1A60BFF34F8FBFF36F8F13
:1013C0000124B1E71800002004ED00E010B5FFF79C
:1013D00013FF0F4B04689A6863182CBF012100218A
:1013E000944203600CD961B9FFF790FF38B94FF010
:1013F0008052084B1A60BFF34F8FBFF36F8F10BD41
:1014000009B99A42F0D20021981AFFF707FCEBE7DE
:101410001800002004ED00E008B540B94FF08052FC
:10142000084B1A60BFF34F8FBFF36F8F08BDFFF7F4
:10143000E3FE0021FFF7F2FBFFF768FF0028EDD085
:10144000F4E700BF04ED00E0124B30B5D3F8F01024
:101450001A4619B10122C3F8002130BDC3F80011AA
:101460001B69B3FA83F31420DBB2C3F11F0300FB43
:1014700003F154182146E56C50316D6800FB0323DD
:101480008D4208BF6968E56408BFE164DB6CDB6816
:10149000D360E2E71800002070B50446254D00F047
:1014A00082FE04B9EC68261D3046FEF774FF58B979
:1014B0001420E16A00FB0150836C2BB901222B69D7
:1014C0008A4023EA02032B61A36A1BB104F11800CE
:1014D000FEF761FF31461848FEF73AFF94F858309E
:1014E000012B04BF002384F8583000F06BFED5F8C0
:1014F000E8302BB100F057FEFFF780FB00F062FEF2
:10150000EB68A3420AD1D5F8E83043B14FF08052DE
:101510000A4B1A60BFF34F8FBFF36F8F70BD6969BD
:101520002A6C914201D1EB60F8E7BDE87040FFF70B
:101530008BBF00BF180000202C00002004ED00E04D
:1015400010B50C46054BD9681831FEF70DFF204643
:10155000BDE810400121FFF761BB00BF180000206B
:1015600010B51446074B41F00041DA689161D96823
:101570001831FEF7EDFE2046BDE810400121FFF7CF
:101580004DBB00BF1800002038B514460D46084B6F
:10159000D9681831FEF7DCFE002C214608BF28462A
:1015A000BDE8384018BF4FF0FF30FFF737BB00BF32
:1015B00018000020C36870B5DD68144C05F11806EA
:1015C0003046FEF7E8FED4F8F030DBB92E1D304689
:1015D000FEF7E1FE01231420EA6A216993400B43E0
:1015E0003146236104F1480300FB0230FEF7B0FEF0
:1015F000E368EA6ADB6A9A428ABF01200020C4F8E5
:10160000000170BD314604F1D400EFE7180000205E
:10161000F8B5C56841F00041012601602F1DFEF7B5
:10162000BAFE3846FEF7B7FE14200B4CEA6A216971
:1016300006FA02F30B43236104F1480300FB023076
:101640003946FEF785FEE368EA6ADB6A9A4288BF9C
:10165000C4F80061F8BD00BF1800002010B50446B2
:1016600000F0A1FD044BD3F8F8209B682260636072
:10167000BDE8104000F0A6BD18000020034BD3F8D1
:10168000F8209B6802604360704700BF180000208C
:1016900070B50C46054600F086FD23680E485A1CBE
:1016A000816810D0D0F8F8002E686A68864201D0B0
:1016B0008A420FD9881A83420AD95B1A13442846F2
:1016C0002360FFF7DBFF002400F07CFD204670BDA7
:1016D000002323600124F7E7180000200122024BB9
:1016E000C3F80021704700BF1800002000B1806CD3
:1016F000704700B18164704770B50C4616460546C8
:1017000008B91B4AD56805F134026260EA6A052B04
:1017100022612A6B2560E2616A6CA260EA6C6261F8
:101720004FF00002A26119D01149C968A94209D13C
:101730002273D6B10023296BCA5CA52A13D09B085B
:10174000238470BD032B2373F3D1FFF755FDAB6AE0
:101750000BB102232373FFF7D9FDEAE72846FFF711
:10176000D9FB2073E5E70133E6E72684E9E700BF0C
:10177000180000202DE9F84F0D6806460C46174664
:101780002DB300254FF0240B4B6801F108085B686E
:1017900043454B6004BFCB684B604B68D3F80CA04B
:1017A00063680BFB05615B6801229845636008BFB5
:1017B000D8F8043005F1010508BF63606368D3F809
:1017C0000C903B464846FFF797FFCA45E8D12846AC
:1017D000BDE8F88F2DE9F84F17460546FFF70CFDD9
:1017E0001F4B1A6C99468A4237D8052600244FF0C1
:1017F000140B4FF0240803F1480A013E08FB045083
:1018000001220BFB06A1FFF7B5FF0444002EF4D123
:10181000022208FB0450D9F80010FFF7ABFF044484
:10182000022208FB0450D9F82810FFF7A3FF044454
:10183000042208FB04500B49FFF79CFF044408FBFB
:10184000045003220849FFF795FF044407B13E60A6
:10185000FFF75CFD2046BDE8F88F0024F8E700BFE5
:1018600018000020440000202C000020014BD86804
:10187000704700BF18000020064BD3F8E82032B1B3
:10188000D3F8F030002B0CBF02200020704701205D
:10189000704700BF180000202DE9F04104460028E1
:1018A00036D0234AC36AD1681546C96A8B4237D2FB
:1018B000142782691F4E002AA8BFEA6807FB03634A
:1018C000A2BFD26AC2F10502826142699A4221D165
:1018D00000F104084046FEF75EFD50B9E16A07FBDF
:1018E0000157BB6C2BB901222B698A4023EA020302
:1018F0002B61EB681420DB6A2969E362012404FA96
:1019000003F20A4300FB036041462A61FEF720FD13
:10191000204603E0EB68DB6AC3620120BDE8F0818A
:10192000D368C06CDC6AA0422CBF00200120F5E720
:10193000180000206000002070B5044608B900209F
:1019400070BD036DC16AC26C013B91420365F6D064
:10195000002BF4D1051D2846FEF71DFD104B58B98C
:101960001421E66A01FB06318A6C2AB901201A6942
:10197000B04022EA00021A61E26CC2F10501A161E5
:10198000E2620124196904FA02F008431861142084
:10199000044B294600FB0230FEF7DAFC2046CFE775
:1019A00018000020600000202DE9F04104460028C6
:1019B00037D0C36C994238BF1946C36A8B4230D0C6
:1019C000026D012A2DD11427174D826905F14806B1
:1019D00007FB0363002A4269C162A4BFC1F105018C
:1019E00081619A421DD100F104084046FEF7D3FC04
:1019F000E26A48B907FB0257BB6C2BB901212B697E
:101A0000914023EA01032B610123142029699340AB
:101A10000B4300FB026041462B61BDE8F041FEF73D
:101A200097BCBDE8F08100BF18000020044BDA68C5
:101A3000D9689069DA68CB6AC3F10503936170478E
:101A400018000020044BDA681AB1D9680A6D013217
:101A50000A65D868704700BF1800002070B5164CA2
:101A600006460D4600F09FFBE3685B6D7BB90121E4
:101A7000E36883F8581055B12846FFF7CFF84FF0C8
:101A800080520E4B1A60BFF34F8FBFF36F8F00F081
:101A900099FB00F088FBE3685D6D1DB1E3684EB112
:101AA00000225A650022E36883F8582000F08AFB80
:101AB000284670BD6A1EF4E71800002004ED00E01F
:101AC0002DE9F0411E4C1E4680460F46154600F09B
:101AD0006AFBE36893F85830022B14D00121E268C6
:101AE000536D23EA08035365E36883F8581056B131
:101AF0003046FFF793F84FF08052124B1A60BFF355
:101B00004F8FBFF36F8F00F05DFB00F04CFB15B102
:101B1000E3685B6D2B60E36893F85830022B03BFDA
:101B2000E2680125536D002504BFBB4353650022C5
:101B3000E36883F8582000F045FB2846BDE8F081B3
:101B40001800002004ED00E0F8B51D4604460F46DD
:101B5000164600F028FB0DB1636D2B60022394F84C
:101B60005850721EEDB284F85830032A0AD8DFE8C4
:101B700002F002060410616D0F43676502E0636DB9
:101B800001336365012D08D0012500F01BFB2846B9
:101B9000F8BD022DF1D10025F7E7271D3846FEF7E5
:101BA000FAFB14200D4EE26A316905FA02F30B4389
:101BB000336106F1480300FB02303946FEF7C8FBEB
:101BC000F368E26ADB6A9A42DED94FF08052044B36
:101BD0001A60BFF34F8FBFF36F8FD6E71800002056
:101BE00004ED00E02DE9F843089F0446EFF3118867
:101BF0004FF0100080F31188BFF36F8FBFF34F8F4A
:101C00000BB1606D1860022394F85860013AF6B287
:101C100084F85830032A0AD8DFE802F002060410DC
:101C2000636D1943616502E0636D01336365012EE5
:101C300008D0012088F31188BDE8F883022EF1D185
:101C40000020F7E7124DD5F8F030E3B904F10409AC
:101C50004846FEF7A0FB14204946E36A2A699E40E5
:101C6000164305F1480200FB03202E61FEF770FBCE
:101C7000EB68E26ADB6A9A42DBD9012307B13B6079
:101C8000C5F80031D5E704F1180105F1D400EDE7FE
:101C9000180000202DE9F84304460F46EFF31188A1
:101CA0004FF0100383F31188BFF36F8FBFF34F8F93
:101CB000022390F8582080F85830436D012A03F130
:101CC0000103D6B243651FD1144DD5F8F030FBB9EE
:101CD00000F104094846FEF75EFB14204946E36A1A
:101CE0002A699E40164305F1480200FB03202E613D
:101CF000FEF72EFBEB68E26ADB6A9A4204D9012305
:101D000007B13B60C5F8003188F31188BDE8F8835E
:101D100000F1180105F1D400EAE700BF1800002027
:101D200010B5044608B9084BDC6800F03CFA002006
:101D300094F85830022B0ABF84F858000446012456
:101D400000F040FA204610BD18000020F8B50D4CF8
:101D500000F029FA256885B9271D384604F11806D0
:101D6000FEF7E8FA3046FEF7E5FA2A460C210A208B
:101D7000C4E90B76FEF7E2FB2060BDE8F84000F016
:101D800021BA00BF1C010020914208B541600061EA
:101D90000AD8D21A83699A420ED2084B011D186BD9
:101DA000FEF7E2FA002008BD9A4201D2994203D21E
:101DB000024B011DD86AF3E70120F4E71C01002063
:101DC00007B5FFF7C3FF084B186848B134330193D8
:101DD0000123F0220093054900230548FEF77EFF0A
:101DE00003B05DF804FB00BF1C010020BD26000805
:101DF000E11E00082DE9F04180462C200F461546D3
:101E00001E4600F079FA0446A0B1002380F828307D
:101E1000FFF79CFF069BC4E90676C4F800802362A6
:101E2000201DFEF792FA2DB194F8283043F00403F8
:101E300084F828302046BDE8F0817FB50E4C054679
:101E4000206816461A4678B10529CDE90116039592
:101E50000CDCFFF711FD0023022814BF1A46089A74
:101E6000206801A9FEF78DFB04B070BD002301A915
:101E7000FEF72EFCF8E700BF1C0100202DE9F3411E
:101E80004FF00008154DEB6A1A682AB92A6BC5E9AC
:101E90000B2302B0BDE8F081DB68DC681E68271DFB
:101EA0003846FEF778FA236A2046984794F8283097
:101EB0005B07E8D5A36933449E4206D23946E86AF7
:101EC00063602461FEF750FADDE7002332461946CD
:101ED0002046CDF80080FFF7B0FFD4E71C010020BA
:101EE0002DE9F047684FDFF8A4813D4686B0FB6AD4
:101EF0001E681EB30024DB681E68FFF77DF9FFF73C
:101F000085F9AB6B824698421AD3A8630CB32B6B4E
:101F10001C68B4FA84F4640922462868A6EB0A0116
:101F2000FEF74AFEFFF7F2F980B94FF08053C8F888
:101F30000030BFF34F8FBFF36F8F07E00124DCE762
:101F4000FFF79CFFC5F838A0FFF7E0F94FF0000954
:101F500048E08642E0D8FFF7D9F9EB6ADB68D3F8AE
:101F60000C9009F10400FEF716FA99F8283058078A
:101F700014D5D9F818103346524648463144FFF775
:101F800003FF30B123463246214648460094FFF70E
:101F900054FF4846D9F820309847D7E723F001038B
:101FA00089F82830F5E794F82830A16943F0010357
:101FB00084F82830049B324620461944FFF7E4FE9B
:101FC00080B1236A2046984794F82830590709D5EC
:101FD0000023A269049920460A44CDF800901946CE
:101FE000FFF72BFF0022286803A9FEF7D3FB002888
:101FF0003FF47DAF039B002BF4DB059C636913B1B9
:10200000201DFEF7C8F9FFF701F9AB6B06469842B1
:1020100001D2FFF733FF039BAE63092BE2D801A285
:1020200052F823F0A71F0008A71F0008A71F0008E9
:102030004D2000085B20000879200008A71F000839
:10204000A71F00084D2000085B20000894F82830E6
:1020500023F0010384F82830C4E794F82830049969
:1020600043F0010384F82830A1613346324620460C
:102070003144FFF789FEB5E794F828309A07E7D492
:10208000204600F09FF9ADE71C01002004ED00E0C0
:10209000014B586B704700BF1C01002080697047DE
:1020A00038B504460D4600F07EF894F828303DB16E
:1020B00043F0040384F82830BDE8384000F082B8CB
:1020C00003F0FB03F6E7406870470068704710B5FF
:1020D000044600F068F894F8284000F073F804F023
:1020E0000104204610BD10B5044600F05CF8E46918
:1020F00000F068F8204610BD38B504460D4600F0E3
:1021000052F8E561BDE8384000F05CB8406A7047BD
:102110004162704700000000000000000000000065
:10212000002382B001934FF0100383F31188BFF3B3
:102130006F8FBFF34F8F019B002BFCD002B0704715
:102140005B480068006880F3088862B661B6BFF338
:102150004F8FBFF36F8F00DF00BF4FF0807340F8E9
:10216000043C054B21F0010140F8081C40F80C3CF0
:1021700040F8202C4038704721210008084B19688E
:102180000868B0E8F00F80F30988BFF36F8F4FF055
:10219000000080F311884EF00D0E7047AFF3008001
:1021A0002400002070474FF0100383F31188BFF321
:1021B0006F8FBFF34F8F024A13680133136070476C
:1021C00014000020034A1368013B13600BB983F32A
:1021D0001188704714000020EFF30980BFF36F8F60
:1021E0000F4B1A6820E9F00F10602DE908404FF0FE
:1021F000100080F31188FFF727F94FF0000080F3FB
:102200001188BDE8084019680868B0E8F00F80F34D
:102210000988BFF36F8F7047AFF30080AFF3008082
:102220002400002008B54FF0100383F31188BFF39A
:102230006F8FBFF34F8FFFF703F818B14FF0805245
:10224000024B1A60002383F3118808BD04ED00E0FF
:102250000022054B05491A600A60054A05491160CC
:1022600007221A60704700BF10E000E018E000E0AD
:1022700014E000E03F19010010B500240A4B1A6871
:1022800042F470021A601A6842F070421A60FFF756
:10229000DFFF064B1C60FFF753FFFFF7D5F8FFF792
:1022A0003FFF204610BD00BF20ED00E014000020DD
:1022B00008ED00E00F4B30B51D461A461B688342FF
:1022C000FBD354681119884201BF416810460919AF
:1022D0005160446801198B4206D1A9688B421FBF27
:1022E00059681B68091941609042036018BF10606B
:1022F00030BD00BF580100202DE9F0412E4D0446AD
:10230000FEF77AFFAB68BBB92C4B2D4A59074FF04B
:1023100000011CBF073323F0070322F007022B60E4
:102320006960C2E90011D11AC3E900214FF00043EE
:10233000C5E90311AA606B61D5F8148018EA040F8F
:1023400037D1002C2DD004F1080362071CBF23F005
:10235000070308336BB32F699F422AD32E681648B0
:1023600072689A4201D2316801BBA968B14220D09B
:1023700004683168D21A102A04F10804016004D9F3
:10238000F01842607360FFF795FF00237268E968F8
:10239000BF1A8F4248EA02022F6138BFEF607260B5
:1023A0003360FEF7B3FF2046BDE8F08130460E46AD
:1023B000D6E70024F5E700BF580100207001002097
:1023C0006849002038B50446D8B10E4D50F8043C99
:1023D0006A69134215D050F8081C91B923EA020328
:1023E00040F8043CFEF708FF2A6954F8043CA4F1C5
:1023F000080013442B61FFF75DFFBDE83840FEF78E
:1024000085BF38BD58010020014B1869704700BFD7
:1024100058010020014BD868704700BF58010020C8
:10242000704700BF124B9A6942F008029A61114A44
:10243000516821F47F415160516841F496415160E7
:10244000DA6942F48022DA611A6942F480221A6160
:102450001A6922F480221A614FF49C73064A138190
:1024600093899BB243F4005343F008039381704770
:1024700000100240000C014000480040034B1A8845
:102480005206FCD580B29880704700BF00480040DB
:1024900010B50120FFF7C6FF00246420FEF7BCFF43
:1024A00020460134FFF7EAFFE4B2F6E707B5064B32
:1024B0004FF40072CDE90003044900230448FEF7FD
:1024C0000DFC03B05DF804FB70490020C526000830
:1024D00091240008844641EA000313F0030349D124
:1024E000403A23D30B6803604B6843608B6883607A
:1024F000CB68C3600B6903614B6943618B6983617E
:10250000CB69C3610B6A03624B6A43628B6A836265
:10251000CB6AC3620B6B03634B6B43638B6B83634D
:10252000CB6BC36340304031403ADBD230320BD307
:102530000B6803604B6843608B688360CB68C36043
:1025400010301031103AF3D20C3205D351F8043B5D
:1025500040F8043B043AF9D2043208D0D2071CBF39
:1025600011F8013B00F8013B01D30B880380604662
:10257000704700BF082A13D38B07B1D010F00303B4
:10258000AED0C3F10403D21ADB071CBF11F8013B24
:1025900000F8013BA4D331F8023B20F8023B9FE74F
:1025A000043AD9D3013A11F8013B00F8013BF9D2C2
:1025B0000B7803704B7843708B788370604670475C
:1025C000002103E00A4B5B584350043109480A4B91
:1025D00042189A42F6D3094A02E0002342F8043B2B
:1025E000074B9A42F9D3FDF703FE00F00CF8704751
:1025F000CA28000800000020180000201800002051
:1026000074490020FEE708B50120FFF74FFFFEF7F1
:10261000B5FD002008BD0000F0B4860746D0541E6A
:10262000002A3CD00346CAB201E0013C37D303F88C
:10263000012B9D07F9D1032C2AD9CDB245EA0525F6
:102640000F2C45EA054534D9A4F1100222F00F0CF5
:1026500003F120071609674403F1100242E904550B
:1026600042E902551032BA42F8D1721C14F00C0F34
:1026700003EB021204F00F0613D0331F23F0030301
:102680000433134442F8045B9342FBD106F0030485
:102690002CB1CAB21C4403F8012B9C42FBD1F0BC04
:1026A000704734461346002CF3D1F8E7144603462E
:1026B000C1E71A462646E0E749444C4500546D728E
:0C26C000205376630044656275670000DB
:1028CA0000A24A0400000000000000000102030404
:0828DA0006070809AAAAAAAA30
:04000005080025C109
:00000001FF
